:100000001CC036C035C034C033C032C031C030C06F
:100010002FC02EC02DC02CC02BC02AC029C028C084
:1000200027C026C025C024C023C022C021C020C0B4
:100030001FC01EC032373539340011241FBECFEF28
:10004000D4E0DEBFCDBF11E0A0E0B1E0E8ECFDE020
:1000500002C005900D92A636B107D9F711E0A6E6C9
:10006000B1E001C01D92A537B107E1F7E5D1AAC6FD
:10007000C7CF282F22952F709AE0299F9001112435
:100080008F70820F0895482F6AE0BDD3282F30E08B
:1000900084E0220F331F8A95E1F7842FB4D3892F90
:1000A000822B0895CF93DF9380ED79D38091650102
:1000B0007CD380ED77D3CCE6D1E089D3899381E0FE
:1000C000C437D807D1F797D380916C018823D9F42E
:1000D00080916D018823B9F480916E01882399F491
:1000E00080916F01882379F480917001882359F4FD
:1000F00080917101882339F480917201882319F469
:1001000080917301811181E0DF91CF9108951F9358
:1001100080ED45D3882311F081E056C080E045D3BF
:1001200080ED40D354D3282F2F7722952F701AE0DB
:10013000219F900111248F70820F8093670147D314
:10014000282F22952F70219F900111248F70820FEC
:10015000809368013CD3282F2F7322952F70219F05
:10016000900111248F70820F8093690130D3282F62
:1001700022952F70219F900111248F70820F809300
:10018000740125D3282F22952F70219F90011124CF
:100190008F70820F80936B011AD3282F22952F70B6
:1001A000219F900111248F70820F809366010FD3DD
:1001B000282F22952F70219F900111248F70820F7C
:1001C00080936A0118D380E01F9108950F931F93C5
:1001D000182F062F80EDE3D2882329F4812FE5D252
:1001E000802FE3D208D31F910F9108951F93182FEA
:1001F00080EDD5D2882311F010E007C0812FD5D231
:1002000080EDD0D2EED2182FF6D2812F1F91089513
:100210001F9380E0EBDF182F80EDC1D2882311F00F
:1002200081E027C080E0C1D217FF05C0809167013F
:100230002ADF806804C08091670125DF8F77B5D2FF
:100240008091680120DFB1D2809169011CDFADD2BD
:1002500080917401AAD280916B0115DFA6D28091A2
:10026000660111DFA2D280916A010DDF9ED2C3D256
:1002700080E01F91089587E3809367018BE380936B
:10028000680187E1809369018FE180936B018CE0C5
:100290008093660185E180936A0185E08093740113
:1002A000B7DF08951F93182F80E0A0DF112319F006
:1002B000682F6F7702C0682F606880E087DF1F912A
:1002C0000895EF92FF920F931F93DF93CF93CDB7D3
:1002D000DEB760970FB6F894DEBF0FBECDBF8DB707
:1002E0009EB70E970FB6F8949EBF0FBE8DBFEDB7A9
:1002F000FEB731968E010F5F1F4FADB7BEB7129696
:100300001C930E93119720E1E22EF12CF382E282EE
:1003100080E091E0958384838091690186831782D0
:10032000809168018087118680916701828713869A
:1003300080916A018487158672D2EDB7FEB73E962A
:100340000FB6F894FEBF0FBEEDBF60D1C801B4D1A7
:1003500020917401822F8150883008F03FC08DB702
:100360009EB70C970FB6F8949EBF0FBE8DBFADB76A
:10037000BEB71196EDB7FEB7128301831396FC92B8
:10038000EE92129787E191E015969C938E931497C5
:1003900080916B0116968C93169717961C9217975F
:1003A0008091660118968C93189719961C9219974C
:1003B000E22FF0E0EE0FFF1FE55BFE4F80819181A1
:1003C0001B969C938E931A972AD28DB79EB70C9644
:1003D0000FB6F8949EBF0FBE8DBF1BC000D000D0DB
:1003E00000D0EDB7FEB73196ADB7BEB712961C93ED
:1003F0000E931197F382E28284E291E095838483E5
:100400000ED2EDB7FEB736960FB6F894FEBF0FBE0C
:10041000EDBF80E062E03BD1CE0101964DD1609608
:100420000FB6F894DEBF0FBECDBFCF91DF911F9105
:100430000F91FF90EF9008954F925F926F927F928D
:100440008F929F92BF92CF92DF92EF92FF920F9383
:100450001F93DF93CF93CDB7DEB728970FB6F894ED
:10046000DEBF0FBECDBFD9D081E06AE04BD180E0C6
:10047000BDDEB82E9DD068ECE62EF12C6E010894FE
:10048000C11CD11C58E0652E712C4AE2842E41E03B
:10049000942E3CE6432E31E0532E03C087E2A6DEC5
:1004A000B82E88EE93E0F7013197F1F70197D9F76D
:1004B0002EDE07DFF7DD882339F580ED70D18091DE
:1004C000650173D10DE511E0D8018D918D016DD1DC
:1004D000B1E005361B07C1F7EDB7FEB738970FB689
:1004E000F894FEBF0FBEEDBF3196ADB7BEB7129602
:1004F000DC92CE9211977382628295828482085038
:1005000010401783068317C08DB79EB708970FB6A4
:10051000F8949EBF0FBE8DBFEDB7FEB73196ADB755
:10052000BEB71296DC92CE92119773826282958248
:1005300084825782468273D1EDB7FEB738960FB6E4
:10054000F894FEBF0FBEEDBF89E062E0A0D0C60107
:10055000B3D0189919C010E0BB2009F411E087E26C
:10056000612F34DE812F9EDE84EF91E0F701319719
:10057000F1F70197D9F7189BFECF84EF91E0F701CF
:100580003197F1F70197D9F7199988CF74DE84EF85
:1005900091E0F7013197F1F70197D9F7189BFECF5A
:1005A00084EF91E0F7013197F1F70197D9F776CF12
:1005B00020982198289A299A389A409808959BB1B2
:1005C0009F709BB99BB1807F892B8BB95B9A85E328
:1005D0008A95F1F75B9808951F93182F5A9AEFDFC9
:1005E000812F8295807FEBDF8AE78A95F1F71F9153
:1005F00008951F93182F5A98E2DF812F8295807FEC
:10060000DEDF80E78A95F1F71F91089581E0F1DF41
:1006100080EA9FE00197F1F708950F931F938AB145
:100620008C6F8AB98BB183708BB980E395E70197A2
:10063000F1F780E3C4DF00E117E2C8010197F1F7A9
:100640005B9A25E3822F8A95F1F75B9880ED97E01E
:10065000FC013197F1F75B9A2A95F1F75B980197C6
:10066000F1F780E2ACDFC8010197F1F788E2C1DF62
:100670008CE0BFDF86E0BDDFC9DF1F910F910895D9
:1006800082E0B7DF80EA9FE00197F1F708956230DA
:1006900061F0633018F4613071F405C0633039F0F3
:1006A000643049F406C0805805C0805403C08057A8
:1006B00001C080539EDF0895CF93DF93EC0102C009
:1006C00021968ADF88818823D9F7DF91CF91089519
:1006D0000F931F93CF93DF938B01880F880F880FA1
:1006E000806487DFC0E0D0E0F801EC0FFD1F80815F
:1006F00073DF2196C830D105B9F7DF91CF911F91F3
:100700000F9108953D983C98882319F0459A449A92
:1007100002C0459844986B3008F46BE06093B800D1
:1007200081E08093B9000895982F84EA8093BC00FB
:1007300024EF31E003C021503040D9F08091BC005B
:1007400087FFF9CF8091B900887F883039F0809198
:10075000B900887F803111F081E008959093BB004B
:1007600084E88093BC0024EF31E007C02150304082
:1007700021F41092BC0083E008958091BC0087FFB3
:10078000F5CF8091B900887F883139F08091B90028
:10079000887F803411F082E0089580E008958E7F94
:1007A000C3DF08958160C0DF08958093BB0084E8B3
:1007B0008093BC008091BC0087FFFCCF8091B90082
:1007C00090E0887F883209F091E0892F089584ECC9
:1007D0008093BC008091BC0087FFFCCF8091BB0060
:1007E000089584E88093BC008091BC0087FFFCCF13
:1007F0008091BB00089584E98093BC008091BC0087
:1008000084FDFCCF0895991B79E004C0991F9617C9
:1008100008F0961B881F7A95C9F780950895AEE079
:10082000B0E0E4E1F4E0A5C20D891E898F89988DBE
:1008300097FF02C080E090E801979E838D831A8322
:10084000098386E08C839E01255E3F4FCE01019691
:10085000698D7A8DA90111D04D815E8157FD0AC045
:100860002F813885421753070CF49A01020F131F8A
:10087000F80110822E96E4E098C2ABE0B0E0E2E42A
:10088000F4E069C23C012B015A01FC011782168277
:10089000838181FD03C06FEF7FEFB9C19AE0892E9C
:1008A0001E010894211C311CF3012381F20123FD58
:1008B000859123FF81912F01882309F4A5C18532F9
:1008C00039F423FD859123FF81912F01853221F495
:1008D00090E0B301B6D1E8CF982FFF24EE249924FD
:1008E000FFE1FF15D0F09B3269F09C3228F4903282
:1008F00059F0933291F40EC09D3249F0903369F46F
:1009000041E024C052E0F52A84E0F82A28C098E0AB
:10091000F92A25C0E0E1FE2A22C0F7FC29C0892F70
:1009200080538A3070F4F6FE05C0989C902C1124F8
:10093000980E15C0E89CE02C1124E80EF0E2FF2A86
:100940000EC09E3229F4F6FC5FC140E4F42A07C0D1
:100950009C3619F450E8F52A02C0983649F4F201A1
:1009600023FD959123FF91912F01992309F0B8CF91
:10097000892F8554833018F08052833038F444E056
:1009800050E0A40EB51E5FE359830FC0933631F0DB
:10099000933779F0933509F052C01FC0F50180817B
:1009A000898342E050E0A40EB51E610101E010E031
:1009B00011C0F501C080D180F6FC03C06FEF7FEF5E
:1009C00002C0692D70E042E050E0A40EB51EC601E1
:1009D0002DD18C015FE7F52213C0F501C080D180D5
:1009E000F6FC03C06FEF7FEF02C0692D70E042E0BC
:1009F00050E0A40EB51EC6010ED18C0150E8F52AB8
:100A0000F3FE06C018C080E290E0B3011AD1EA9468
:100A10008E2D90E008171907B0F30DC0F601F7FC12
:100A20008591F7FE81916F0190E0B3010AD1E11049
:100A3000EA94015010400115110581F7E2C0943687
:100A400011F0993661F5F7FE08C0F501208131817A
:100A50004281538184E090E00AC0F5018081918158
:100A60009C01442737FD4095542F82E090E0A80E6A
:100A7000B91E9FE6F92257FF09C050954095309561
:100A800021953F4F4F4F5F4FE0E8FE2ACA01B90161
:100A9000A1012AE030E001D1D82ED2183FC095370D
:100AA00029F41F2D1F7E2AE030E01DC01F2D197F65
:100AB0009F3661F0903720F4983509F0A5C00FC03B
:100AC000903739F0983709F09FC004C028E030E033
:100AD0000AC0106114FD146020E130E004C014FD70
:100AE000166020E132E017FF08C0F50160817181D6
:100AF0008281938144E050E008C0F50180819181BA
:100B0000BC0180E090E042E050E0A40EB51EA101DF
:100B1000C4D0D82ED2188FE7F82EF122F6FE0BC0E3
:100B20005EEFF522D91438F4F4FE07C0F2FC05C0DC
:100B30008FEEF82202C01D2D01C0192DF4FE0DC04C
:100B4000FE01ED0DF11D8081803319F499EEF9223B
:100B500008C01F5FF2FE05C003C08F2D867809F024
:100B60001F5F0F2DF3FC13C0F0FE0EC01E1510F01A
:100B70009D2C0AC09D2C9E0C911A1E2D05C080E252
:100B800090E0B3015ED01F5F1E15C8F304C01E15B0
:100B900010F4E11A01C0EE2404FF0EC080E390E0DF
:100BA000B3014FD002FF1BC001FD03C088E790E0F6
:100BB0000EC088E590E00BC0802F867881F001FFA1
:100BC00002C08BE201C080E2F7FC8DE290E0B3014D
:100BD00038D005C080E390E0B30133D09A94D914A3
:100BE000C8F3DA94F101ED0DF11D808190E0B301BD
:100BF00028D0DD20B1F705C080E290E0B30121D01C
:100C0000EA94EE20C9F750CEF30166817781CB01DB
:100C10002B96E2E1BCC0FC010590615070400110D0
:100C2000D8F7809590958E0F9F1F0895FC01615015
:100C3000704001900110D8F7809590958E0F9F1FFE
:100C400008950F931F93CF93DF938C01EB018B815A
:100C500081FF1BC082FF0DC02E813F818C819D8151
:100C60002817390764F4E881F9810193F983E8834F
:100C700006C0E885F985802F0995892B31F48E818E
:100C80009F8101969F838E8302C00FEF1FEFC801E3
:100C9000DF91CF911F910F910895FA01AA27283073
:100CA00051F1203181F1E8946F936E7F6E5F7F4F39
:100CB0008F4F9F4FAF4FB1E03ED0B4E03CD0670FB5
:100CC000781F891F9A1FA11D680F791F8A1F911D08
:100CD000A11D6A0F711D811D911DA11D20D009F458
:100CE00068943F912AE0269F11243019305D31939A
:100CF000DEF6CF010895462F4770405D4193B3E083
:100D00000FD0C9F7F6CF462F4F70405D4A3318F029
:100D1000495D31FD4052419302D0A9F7EACFB4E0DA
:100D2000A6959795879577956795BA95C9F7009792
:100D30006105710508959B01AC010A2E0694579533
:100D4000479537952795BA95C9F7620F731F841F8A
:100D5000951FA01D08952F923F924F925F926F9220
:100D60007F928F929F92AF92BF92CF92DF92EF923B
:100D7000FF920F931F93CF93DF93CDB7DEB7CA1BBC
:100D8000DB0B0FB6F894DEBF0FBECDBF09942A88E7
:100D9000398848885F846E847D848C849B84AA848F
:100DA000B984C884DF80EE80FD800C811B81AA811C
:100DB000B981CE0FD11D0FB6F894DEBF0FBECDBFE7
:080DC000ED010895F894FFCF46
:100DC800253032643A253032643A253032642020A6
:100DD80032302530326400253032642E25303264BA
:100DE800202573004572726F72002573004D6F6E77
:100DF800005475650057656400546875004672694B
:100E0800005361740053756E00457272002D0131F4
:100E180001350139013D014101450149015345327F
:060E2800373539340008E3
:00000001FF
