:100000001CC036C035C034C033C032C031C030C06F
:100010002FC02EC02DC02CC02BC02AC029C028C084
:1000200027C026C025C024C023C022C021C020C0B4
:100030001FC01EC032373539340011241FBECFEF28
:10004000D4E0DEBFCDBF12E0A0E0B1E0E6E4F6E12F
:1000500002C005900D92AA31B107D9F712E0AAE1CA
:10006000B2E001C01D92A132B107E1F723D6E9CA7F
:10007000C7CF20982198289A299A0895282F229549
:100080002F709AE0299F900111248F70820F08959C
:10009000482F6AE0AED7282F30E084E0220F331FCC
:1000A0008A95E1F7842FA5D7892F822B08951F9376
:1000B000DF93CF93CDB7DEB72C970FB6F894DEBFA2
:1000C0000FBECDBFDE011196EDE0F2E08CE00190B5
:1000D0000D928150E1F780911B02873350F065E06B
:1000E00088D790931B0280911C028F5F80931C0223
:1000F00003C08B5F80931B0280911C028C33F0F154
:1001000010921C0280911D028F5F80931D02883126
:10011000A8F110921D0240911F024F5F40931F02F1
:1001200010911E02212F30E0C90183709070892B3D
:1001300029F4812F64E65DD7992331F4C90160E980
:1001400071E077D7892B11F48DE18A8390911A029F
:10015000FE01E90FF11D8181841730F481E0809365
:100160001F029F5F90931A0280911A028C3030F028
:1001700081E080931A021F5F10931E022C960FB627
:10018000F894DEBF0FBECDBFCF91DF911F910895D0
:10019000FC0188EC80937C0060E020E030E040E0EF
:1001A00050E080917A00806C80937A0080917A0090
:1001B00086FDFCCF8091780090917900A0E0B0E0BE
:1001C000280F391F4A1F5B1F6F5F603851F795E09A
:1001D00056954795379527959A95D1F7CF01A0E089
:1001E000B0E0281B390B4A0B5B0BCA01B9012BE1AC
:1001F00030E040E050E0DED624E630E040E050E081
:100200002BD7C9010895CF92DF92EF92FF920F93FF
:100210001F93DF93CF93CDB7DEB760970FB6F894F7
:10022000DEBF0FBECDBF6C018DB79EB70E970FB668
:10023000F8949EBF0FBE8DBFEDB7FEB731968E010D
:100240000F5F1F4FADB7BEB712961C930E93119759
:1002500020E1E22EF12CF382E28280E091E09583AE
:10026000848380911D028683178280911C0280877F
:10027000118680911B028287138680911E028487DB
:1002800015860CD78DB79EB70E960FB6F8949EBF05
:100290000FBE8DBFA2D5C801F6D5ADB7BEB71E97AC
:1002A0000FB6F894BEBF0FBEADBFEDB7FEB7319627
:1002B00012961C930E931197F382E28287E191E0EC
:1002C0009583848380911F028683178280911A020E
:1002D00080871186C6016AE070E097D673876287CF
:1002E000C6016AE070E091D695878487D7D68DB72E
:1002F0009EB70E960FB6F8949EBF0FBE8DBF80E0DE
:1003000062E0ACD5C801BFD560960FB6F894DEBFE9
:100310000FBECDBFCF91DF911F910F91FF90EF9056
:10032000DF90CF900895DF92EF92FF920F931F938B
:10033000D82EE92EF62E00E010EA812F07D688236A
:1003400011F430D6012F1E5F103BB9F7802FFED578
:100350008F2DFFD58E2DFDD58D2DFBD523D680E29B
:100360009EE40197F1F71F910F91FF90EF90DF90BE
:100370000895EF92FF920F931F93E82EF62E00E060
:1003800010EA812FE3D5882311F40CD6012F1E5FCC
:10039000103BB9F7802FDAD58F2DDBD58E2DD9D52F
:1003A00001D680E29EE40197F1F71F910F91FF9033
:1003B000EF900895CF93DF93C0E0D0E080E06C2F02
:1003C000D8DF219681E0C030D807C1F706D58AE290
:1003D00091E059D580E197E228EC30E0F9013197BE
:1003E000F1F70197D9F7DF91CF9108950F931F93FC
:1003F000182F062F80EDAAD5882329F4812FA9D59F
:10040000802FA7D5CFD51F910F910895FF920F93FD
:100410001F93F82E00E010EA812F98D5882311F45D
:10042000C1D5012F1E5F103BB9F7802F8FD58F2DBF
:1004300090D5802FA0D5A2D5182FAAD5082FB2D538
:10044000312F20E0200F311DC9011F910F91FF9026
:100450000895FF920F931F93F82E00E010EA812F6A
:1004600075D5882311F49ED5012F1E5F103BB9F777
:10047000802F6CD58F2D6DD5802F7DD589D5182FE8
:1004800091D5812F1F910F91FF900895CF93DF9306
:10049000C0E0D0E08C2FDDDF882311F080E006C0C3
:1004A000219681E0C030D807A9F781E0DF91CF9194
:1004B00008951F9380ED4AD5882311F081E056C03E
:1004C00080E047D580ED57D559D5282F2F77229535
:1004D0002F701AE0219F900111248F70820F80935A
:1004E0001B024CD5282F22952F70219F900111249B
:1004F0008F70820F80931C0241D5282F2F73229575
:100500002F70219F900111248F70820F80931D0204
:1005100035D5282F22952F70219F900111248F709F
:10052000820F809320022AD5282F22952F70219F99
:10053000900111248F70820F80931F021FD5282FE6
:1005400022952F70219F900111248F70820F80932C
:100550001A021ED5282F22952F70219F9001112459
:100560008F70820F80931E021DD580E01F91089529
:100570002F923F924F925F926F927F928F929F92B3
:10058000AF92BF92CF92DF92EF92FF920F931F93A1
:10059000DF93CF93CDB7DEB761970FB6F894DEBF88
:1005A0000FBECDBF3C01189BFECF84EF91E028EC3D
:1005B00030E0F9013197F1F70197D9F767DF882328
:1005C00071F00BD489E391E05ED480E197E228ECEE
:1005D00030E0F9013197F1F70197D9F7B1C180E027
:1005E00038DFA8EC8A2E912C282E33245E01089443
:1005F000A11CB11CF0E14F2E512C88EE93E0F401C8
:100600003197F1F70197D9F7E8D38DB79EB70897DF
:100610000FB6F8949EBF0FBE8DBFEDB7FEB73196F3
:10062000ADB7BEB71296BC92AE921197538242827A
:1006300081E491E095838483378226822FD5ADB7FC
:10064000BEB718960FB6F894BEBF0FBEADBFC501BA
:100650001AD480E062E002D42CDFF0901D02E0901A
:100660001C02D0901B02C30193DD8C01C30190DDFD
:100670009C018DB79EB740970FB6F8949EBF0FBEF2
:100680008DBFEDB7FEB73196ADB7BEB71296BC922F
:10069000AE9211975382428282E591E095838483E2
:1006A000F6821782E0861186D2861386C8016AE038
:1006B00070E0ABD475876487C9016AE070E0A5D4A7
:1006C00097878687EBD4ADB7BEB750960FB6F89430
:1006D000BEBF0FBEADBFC501D6D3189B02C01999CE
:1006E0008CCF84EF91E0F4013197F1F70197D9F7BE
:1006F00018992CC084EF91E0F4013197F1F701973C
:10070000D9F721E024C084EF91E0F4013197F1F7AB
:100710000197D9F718991BC0199919C084EF91E076
:1007200028EC30E0F9013197F1F70197D9F742DE73
:10073000189902C0199BFCCF84EF91E028EC30E0BF
:10074000F9013197F1F70197D9F7FAC020E0189B2A
:10075000DACF199BD8CF213009F04FCF84EF91E049
:1007600028EC30E0F9013197F1F70197D9F781E0F2
:1007700070DE80931E0282E06CDE80931A0283E0BA
:1007800068DE80931F0284E064DE80931D0285E0B2
:1007900060DE80931C0286E05CDE80931B02E1E059
:1007A000EE2EF12C198A78ECC72ED12C5E0108941C
:1007B000A11CB11C60E1862E912C5DE6452E51E016
:1007C000552E4CE7642E41E0742E01C0198A88EE44
:1007D00093E0F6013197F1F70197D9F7C701019737
:1007E000880F991F895F12DE8C01F7D28DB79EB7F3
:1007F00008970FB6F8949EBF0FBE8DBFEDB7FEB73A
:100800003196ADB7BEB71296BC92AE921197938255
:10081000828255824482F782E68240D48DB79EB7A9
:1008200008960FB6F8949EBF0FBE8DBFC5012BD39F
:1008300080E062E013D3ADB7BEB750970FB6F8941F
:10084000BEBF0FBEADBFEDB7FEB731961296BC92DC
:10085000AE921197938282827582648280911D028A
:100860008683178280911C028087118680911B02EB
:1008700082871386C8016AE070E0C7D375876487F2
:10088000C8016AE070E0C1D39787868707D48DB727
:100890009EB740960FB6F8949EBF0FBE8DBFC501A0
:1008A000F2D2189B02C0199992CF84EF91E0F60121
:1008B0003197F1F70197D9F7189909C084EF91E0C2
:1008C000F6013197F1F70197D9F791E0998B1899D3
:1008D0001AC0199918C084EF91E028EC30E0F901B2
:1008E0003197F1F70197D9F765DD189902C0199B87
:1008F000FCCF84EF91E028EC30E0F9013197F1F77B
:100900000197D9F71DC0199908C084EF91E0F6014D
:100910003197F1F70197D9F759CFA989A13009F09B
:1009200056CF84EF91E0F6013197F1F70197D9F7AF
:10093000E214F30429F00894E11CF11CB8DB47CF62
:1009400061960FB6F894DEBF0FBECDBFCF91DF9199
:100950001F910F91FF90EF90DF90CF90BF90AF90DD
:100960009F908F907F906F905F904F903F902F90CF
:1009700008952F923F924F925F926F927F928F9243
:100980009F92AF92BF92CF92DF92EF92FF920F931E
:100990001F93DF93CF93CDB7DEB763970FB6F8946D
:1009A000DEBF0FBECDBF6C01F3DB2DDC6FDD882316
:1009B00071F413D286E991E066D288E893E128ECDD
:1009C00030E0F9013197F1F70197D9F706C180912D
:1009D0001E0261E0CEDC80911A0262E0CADC8091E6
:1009E0001F0263E0C6DC80911D0264E0C2DC8091DE
:1009F0001C0265E0BEDC80911B0266E0BADC80E18F
:100A000097E228EC30E0F9013197F1F70197D9F737
:100A100087E0982E01E0E02EF12C5E010894A11CE5
:100A2000B11C10E1212E312CE98A80901C0210911A
:100A30001B02C601ADDBEA8AFB8A612E7724B4E093
:100A40004B2E512C460C571C85C088EE93E0E8ECE9
:100A5000F0E03197F1F70197D1F7C60199DB8C01EE
:100A6000692D61DC898960E084DCB7D18DB79EB7E0
:100A700008970FB6F8949EBF0FBE8DBFEDB7FEB7B7
:100A80003196ADB7BEB71296BC92AE921197338233
:100A9000228287EA91E0958384839A899683AB8941
:100AA000A783FCD28DB79EB708960FB6F8949EBF69
:100AB0000FBE8DBFC501E7D180E062E0CFD1ADB7F9
:100AC000BEB750970FB6F894BEBF0FBEADBFEDB71F
:100AD000FEB731961296BC92AE9211973382228263
:100AE00082E591E09583848380911D02868317823D
:100AF00080911C028087118680911B028287138659
:100B0000C8016AE070E081D275876487C8016AE035
:100B100070E07BD297878687C1D2ADB7BEB75096BB
:100B20000FB6F894BEBF0FBEADBFC501ACD11899CA
:100B300010C019990EC051D187EB91E0A4D188E87B
:100B400093E128EC30E0F9013197F1F70197D9F7FB
:100B500044C0AFDC80911B02282F30E042165306C0
:100B60002CF080911C02881509F46FCF80911C0233
:100B7000881541F0245C3F4F26193709253031058F
:100B80000CF463CF2AD186EC91E07DD188E893E123
:100B9000E8ECF0E03197F1F70197D1F7B2E09B0E66
:100BA0000894E11CF11C8FEF981609F03DCF15D188
:100BB00084EF91E028EC30E0F9013197F1F70197EB
:100BC000D9F78DEC91E05FD180E197E228EC30E03D
:100BD000F9013197F1F70197D9F763960FB6F894B9
:100BE000DEBF0FBECDBFCF91DF911F910F91FF9060
:100BF000EF90DF90CF90BF90AF909F908F907F90BD
:100C00006F905F904F903F902F9008951F93182FF3
:100C100080ED9CD1882311F010E007C0812F99D17D
:100C200080EDA9D1B5D1182FBDD1812F1F91089585
:100C30001F9380E0EBDF182F80ED88D1882311F01F
:100C400081E027C080E085D117FF05C080911B029D
:100C50001FDA806804C080911B021ADA8F7779D17D
:100C600080911C0215DA75D180911D0211DA71D1C3
:100C7000809120026ED180911F020ADA6AD18091A0
:100C80001A0206DA66D180911E0202DA62D18AD196
:100C900080E01F9108951F93182F80E0B7DF112384
:100CA00019F0682F6F7702C0682F606880E09EDBC4
:100CB0001F9108950F931F93CF93DF93DAD994D0A8
:100CC00081E06AE031D180917C00886C80937C0067
:100CD00086E080937A0080917A00806C80937A001D
:100CE00081E0D9DF85B1836085B928EE33E0C8ECB7
:100CF000D0E009C0CE010197F1F72150304003C088
:100D000028EE33E0F7CF21153105A1F788E592E011
:100D10003FDA8C01CEDBC80176DA18991AC084EF6D
:100D200091E0FE013197F1F70197D9F788E592E05C
:100D30001FDC8EEE92E0FE013197F1F70197D9F7B3
:100D4000189BFECF8EEE92E0FE013197F1F70197EE
:100D5000D9F71999D5CF84EF91E0FE013197F1F7DA
:100D60000197D9F788E592E004DE8EEE92E0FE016D
:100D70003197F1F70197D9F7199BFECF8EEE92E0EC
:100D8000FE013197F1F70197D9F7BACF9BB19F7068
:100D90009BB99BB1807F892B8BB95B9A85E38A9540
:100DA000F1F75B9808951F93182F5A9AEFDF812F60
:100DB0008295807FEBDF8AE78A95F1F71F9108958E
:100DC0001F93182F5A98E2DF812F8295807FDEDFF4
:100DD00080E78A95F1F71F91089581E0F1DF80EABD
:100DE0009FE00197F1F708950F931F938AB18C6FDD
:100DF0008AB98BB183708BB980E395E70197F1F7DE
:100E000080E3C4DF00E117E2C8010197F1F75B9AC4
:100E100025E3822F8A95F1F75B9880ED97E0FC013E
:100E20003197F1F75B9A2A95F1F75B980197F1F703
:100E300080E2ACDFC8010197F1F788E2C1DF8CE006
:100E4000BFDF86E0BDDFC9DF1F910F91089582E00B
:100E5000B7DF80EA9FE00197F1F70895623061F013
:100E6000633018F4613071F405C0633039F06430D8
:100E700049F406C0805805C0805403C0805701C0A3
:100E800080539EDF0895CF93DF93EC0102C021963B
:100E90008ADF88818823D9F7DF91CF9108950F9356
:100EA0001F93CF93DF938B01880F880F880F806487
:100EB00087DFC0E0D0E0F801EC0FFD1F808173DF19
:100EC0002196C830D105B9F7DF91CF911F910F91CD
:100ED0000895982F84EA8093BC008091BC0087FF1E
:100EE000FCCF8091B900887F883039F08091B900BB
:100EF000887F803111F081E008959093BB0084E8F1
:100F00008093BC008091BC0087FFFCCF8091B9002A
:100F1000887F883139F08091B900887F803411F062
:100F200082E0089580E008956B3008F46BE03D980E
:100F30003C98882319F0459A449A02C045984498F1
:100F40006093B80081E08093B90008958E7FC1DF7F
:100F500008958093BB0084E88093BC008091BC001E
:100F600087FFFCCF8091B90090E0887F883209F03C
:100F700091E0892F08958160ACDF089584EC80931F
:100F8000BC008091BC0087FFFCCF8091BB0008951E
:100F900084E88093BC008091BC0087FFFCCF8091E7
:100FA000BB00089584E98093BC008091BC0084FD5F
:100FB000FCCF0895629FD001739FF001829FE00DE6
:100FC000F11D649FE00DF11D929FF00D839FF00DC8
:100FD000749FF00D659FF00D9927729FB00DE11D74
:100FE000F91F639FB00DE11DF91FBD01CF01112451
:100FF0000895991B79E004C0991F961708F0961B75
:10100000881F7A95C9F780950895AA1BBB1B51E1EB
:1010100007C0AA1FBB1FA617B70710F0A61BB70B68
:10102000881F991F5A95A9F780959095BC01CD010D
:10103000089597FB092E07260AD077FD04D0E5DF37
:1010400006D000201AF4709561957F4F0895F6F749
:10105000909581959F4F0895A1E21A2EAA1BBB1B64
:10106000FD010DC0AA1FBB1FEE1FFF1FA217B30774
:10107000E407F50720F0A21BB30BE40BF50B661F8A
:10108000771F881F991F1A9469F76095709580954E
:1010900090959B01AC01BD01CF010895AEE0B0E099
:1010A000E3E5F8E0A5C20D891E898F89988D97FF29
:1010B00002C080E090E801979E838D831A830983A4
:1010C00086E08C839E01255E3F4FCE010196698D9F
:1010D0007A8DA90111D04D815E8157FD0AC02F8103
:1010E0003885421753070CF49A01020F131FF801B9
:1010F00010822E96E4E098C2ABE0B0E0E1E8F8E0C0
:1011000069C23C012B015A01FC01178216828381BE
:1011100081FD03C06FEF7FEFB9C19AE0892E1E01F8
:101120000894211C311CF3012381F20123FD8591D8
:1011300023FF81912F01882309F4A5C1853239F459
:1011400023FD859123FF81912F01853221F490E0C9
:10115000B301B6D1E8CF982FFF24EE249924FFE104
:10116000FF15D0F09B3269F09C3228F4903259F090
:10117000933291F40EC09D3249F0903369F441E00E
:1011800024C052E0F52A84E0F82A28C098E0F92A21
:1011900025C0E0E1FE2A22C0F7FC29C0892F805338
:1011A0008A3070F4F6FE05C0989C902C1124980E9D
:1011B00015C0E89CE02C1124E80EF0E2FF2A0EC0D6
:1011C0009E3229F4F6FC5FC140E4F42A07C09C3645
:1011D00019F450E8F52A02C0983649F4F20123FDCB
:1011E000959123FF91912F01992309F0B8CF892F71
:1011F0008554833018F08052833038F444E050E056
:10120000A40EB51E5FE359830FC0933631F09337B8
:1012100079F0933509F052C01FC0F50180818983B0
:1012200042E050E0A40EB51E610101E010E011C0E3
:10123000F501C080D180F6FC03C06FEF7FEF02C0E4
:10124000692D70E042E050E0A40EB51EC6012DD11C
:101250008C015FE7F52213C0F501C080D180F6FC58
:1012600003C06FEF7FEF02C0692D70E042E050E0F5
:10127000A40EB51EC6010ED18C0150E8F52AF3FE6E
:1012800006C018C080E290E0B3011AD1EA948E2D16
:1012900090E008171907B0F30DC0F601F7FC85912F
:1012A000F7FE81916F0190E0B3010AD1E110EA9459
:1012B000015010400115110581F7E2C0943611F07C
:1012C000993661F5F7FE08C0F50120813181428130
:1012D000538184E090E00AC0F501808191819C01F6
:1012E000442737FD4095542F82E090E0A80EB91EA8
:1012F0009FE6F92257FF09C05095409530952195FA
:101300003F4F4F4F5F4FE0E8FE2ACA01B901A101EC
:101310002AE030E001D1D82ED2183FC0953729F409
:101320001F2D1F7E2AE030E01DC01F2D197F9F3624
:1013300061F0903720F4983509F0A5C00FC09037C0
:1013400039F0983709F09FC004C028E030E00AC0A7
:10135000106114FD146020E130E004C014FD16603B
:1013600020E132E017FF08C0F501608171818281C0
:10137000938144E050E008C0F50180819181BC0177
:1013800080E090E042E050E0A40EB51EA101C4D080
:10139000D82ED2188FE7F82EF122F6FE0BC05EEFA2
:1013A000F522D91438F4F4FE07C0F2FC05C08FEE24
:1013B000F82202C01D2D01C0192DF4FE0DC0FE0142
:1013C000ED0DF11D8081803319F499EEF92208C0EA
:1013D0001F5FF2FE05C003C08F2D867809F01F5FE6
:1013E0000F2DF3FC13C0F0FE0EC01E1510F09D2C47
:1013F0000AC09D2C9E0C911A1E2D05C080E290E023
:10140000B3015ED01F5F1E15C8F304C01E1510F493
:10141000E11A01C0EE2404FF0EC080E390E0B301A6
:101420004FD002FF1BC001FD03C088E790E00EC053
:1014300088E590E00BC0802F867881F001FF02C024
:101440008BE201C080E2F7FC8DE290E0B30138D07E
:1014500005C080E390E0B30133D09A94D914C8F367
:10146000DA94F101ED0DF11D808190E0B30128D0F7
:10147000DD20B1F705C080E290E0B30121D0EA940D
:10148000EE20C9F750CEF30166817781CB012B9610
:10149000E2E1BCC0FC010590615070400110D8F73A
:1014A000809590958E0F9F1F0895FC0161507040AC
:1014B00001900110D8F7809590958E0F9F1F089589
:1014C0000F931F93CF93DF938C01EB018B8181FFEF
:1014D0001BC082FF0DC02E813F818C819D8128170A
:1014E000390764F4E881F9810193F983E88306C040
:1014F000E885F985802F0995892B31F48E819F81AC
:1015000001969F838E8302C00FEF1FEFC801DF910A
:10151000CF911F910F910895FA01AA27283051F118
:10152000203181F1E8946F936E7F6E5F7F4F8F4F14
:101530009F4FAF4FB1E03ED0B4E03CD0670F781F73
:10154000891F9A1FA11D680F791F8A1F911DA11D58
:101550006A0F711D811D911DA11D20D009F4689491
:101560003F912AE0269F11243019305D3193DEF639
:10157000CF010895462F4770405D4193B3E00FD0EF
:10158000C9F7F6CF462F4F70405D4A3318F0495DDA
:1015900031FD4052419302D0A9F7EACFB4E0A695BD
:1015A0009795879577956795BA95C9F700976105DF
:1015B000710508959B01AC010A2E06945795479535
:1015C00037952795BA95C9F7620F731F841F951F2A
:1015D000A01D08952F923F924F925F926F927F923B
:1015E0008F929F92AF92BF92CF92DF92EF92FF9233
:1015F0000F931F93CF93DF93CDB7DEB7CA1BDB0BDF
:101600000FB6F894DEBF0FBECDBF09942A88398883
:1016100048885F846E847D848C849B84AA84B9848A
:10162000C884DF80EE80FD800C811B81AA81B98196
:10163000CE0FD11D0FB6F894DEBF0FBECDBFED01AA
:061640000895F894FFCFAD
:10164600253032643A253032643A2530326420201F
:1016560032302530326400253032642E2530326433
:10166600202025642E25642043004D656D6F727918
:1016760020436C6561726564004E6F20446174613D
:10168600005265636F7264696E673A202530336471
:101696002000253032643A253032643A25303264EF
:1016A6002D253032642E2530316420430052656387
:1016B6006F7264696E673A25303364002530326490
:1016C6003A253032643A253032642D253032642E84
:1016D6002530316443004D656D6F7279206E6F74ED
:1016E60020656D707479005265636F7264696E6708
:1016F6003A2025303364005265636F7264696E6701
:101706002053746F7000534156454421004D656D5A
:101716006F72792069732066756C6C21004D6F6E4F
:101726000054756500576564005468750046726913
:10173600005361740053756E0045727200DD01E15D
:1017460001E501E901ED01F101F501F9011F1C1F98
:0A1756001E1F1E1F1F1E1F1E1F0076
:00000001FF
